:020000040800F2
:1000000008060020490100081B180008A914000870
:10001000191800080B020008791B000800000000F6
:100020000000000000000000000000001F18000891
:100030000D020008000000001D180008211800082B
:100040006301000863010008630100086301000800
:1000500063010008630100086301000863010008F0
:1000600063010008630100086301000863010008E0
:1000700063010008630100086301000863010008D0
:1000800063010008630100086301000863010008C0
:1000900063010008630100086301000863010008B0
:1000A00063010008630100086301000863010008A0
:1000B0006301000863010008630100086301000890
:1000C0006301000863010008630100086301000880
:1000D0006301000863010008630100086301000870
:1000E0006301000863010008630100086301000860
:1000F0006301000863010008630100086301000850
:10010000630100086301000863010008630100083F
:10011000630100086301000863010008630100082F
:10012000630100086301000863010008630100081F
:10013000DFF810D000F02CF800480047B91B000889
:10014000AFF30080080600200648804706480047B5
:10015000FEE7FEE7FEE7FEE7FEE7FEE7FEE7FEE777
:10016000FEE7FEE79F18000831010008D2B201E067
:1001700000F8012B491EFBD270470022F6E710B5AC
:1001800013460A4604461946FFF7F0FF204610BD05
:10019000064C074D06E0E06840F0010394E80700D4
:1001A00098471034AC42F6D3FFF7C6FF0C1C00088A
:1001B0002C1C000870B5044600688168C943C90753
:1001C00017D1816821F00101816000F0B9FA05467C
:1001D0000AE000BF00F0B4FA401B022804D92068EE
:1001E0008068C043C00706D020688068C043C0074D
:1001F000F0D0002070BDA06A40F01000A062E06A5C
:1002000040F00100E062012070BDFEE7704772B669
:10021000FEE70000F8B50024009490F8242025465D
:10022000012A12D0012280F824204A681F23072ABD
:100230000DD20668776B521E02EB820293409F43F9
:100240000B6893401F43776319E00220F8BD0668EE
:100250000D2A0AD2376BD21F02EB820293409F43D2
:100260000B6893401F43376309E0F76A0D3A02EBCE
:10027000820293409F430B6893401F43F7620A68D2
:10028000072306680A2A0AD3F7680A3A02EB4202F1
:1002900093409F438B6893401F43F76008E03769A2
:1002A00002EB420293409F438B6893401F433761A8
:1002B0000A68102A01D0112A20D1124B02689A42F2
:1002C00017D193681B0219D4936843F40003936019
:1002D0000968102912D10C490C4A0968B1FBF2F1E6
:1002E00001EB8101490000E0491E00910029FBD18A
:1002F00004E0816A41F020018162012480F82450E9
:100300002046F8BD002401400C00002040420F00B0
:100310002DE9F04104004FF000057FD0A06A0026CF
:1003200028B9E66284F82460204600F081F820466F
:10033000FFF740FFA16AC90600D420B1A06A40F0CF
:100340001000A0626AE0A16A21F4885141F0020124
:10035000A162334923688B42E16904D1B1F5402F92
:1003600001D14FF40021277B4FF4807C41EA470202
:1003700061680A43A168614508D0012906D00021BF
:1003800094F814E0BEF1010F02D00AE06146F7E7ED
:10039000C7B1A76A47F02007A762E76A47F00107DD
:1003A000E7625F6827F469470F435F6023689968D5
:1003B0001C4F394011439960A16861450BD0012958
:1003C00009D00CE0DFF860E0A7690EEB47370F4378
:1003D00047F40061E5E7218A0D05A5F58015216840
:1003E000CB6A23F470032B43CB62216889680F4BDF
:1003F0001940914208D1E662A16A21F0020141F060
:100400000101A162BDE8F081A06A20F0020040F085
:100410001000A062E06A40F00100E0620120F1E714
:10042000003C0140FDF7E1FF00E0FFFFFE0E1FFF73
:1004300070B586B000250646009501950295039596
:1004400000681A4988422ED11949886940F4007021
:100450008861886900F400700490886940F00400A5
:1004600088618869694600F00400049007200090C4
:10047000032001900F4800F061F8104C0E48C4E9C9
:1004800000058020C4E902504000206180006061C6
:100490002020C4E90605204600F012F808B1FFF755
:1004A000B6FE3462666206B070BD000000240140F2
:1004B00000100240000801400800024040000020F7
:1004C00030B560B11A4B026814219A4209D2194B17
:1004D0001344B3FBF1F18900016417490AE00120DC
:1004E00030BD134B5B421344B3FBF1F1890001644F
:1004F0000F490839C163022180F82110136843F6BF
:10050000F0718B43F0E901142143D0E902452C43FB
:1005100021430469214344692143846921431943E8
:10052000116000214163012242770177084630BD06
:1005300008040240F8FFFDBF000002402DE9F84F1B
:10054000DFF8C8910024A9F1040B23460F2709F115
:10055000040AABF1040ED1E00125A54006EA05022C
:10056000AA4276D1DFF8A8C14E68A6EB0C08664512
:100570002BD00DDC032E34D005DC36B3012E19D080
:10058000022E2FD11BE0112E16D0122E2AD119E0E7
:10059000B8F5881F19D006DCB8F5803F15D0B8F53E
:1005A000801F1FD111E0B8F5001F0ED0B8F5041F51
:1005B00018D10AE0CB6815E0CB681B1D12E0CB68B0
:1005C00008330FE0CB680C330CE08B682BB1012BA8
:1005D0004FF0080303D0456104E0042302E0056105
:1005E00000E00023FF2A01D8064601E000F10406DE
:1005F0004FEA840501D9A5F12005D6F8008007FA55
:1006000005FC28EA0C0803FA05F548EA0508C6F8CF
:1006100000804D68ED0070D53E4DAE6946F0010694
:10062000AE61AD6924F0030605F0010500953A4D71
:1006300006EB050CDCF80850A607360F07FA06F89B
:1006400025EA0805DFF8D480404503D14FF00008C3
:1006500025E052E0DFF8C880404502D14FF00108A4
:100660001DE0DFF8C080404502D14FF0020816E0DF
:10067000DFF8B480404502D14FF003080FE0DFF807
:10068000AC80404502D14FF0040808E0DFF8A080BC
:10069000404502D14FF0050801E04FF0060808FA86
:1006A00006F848EA0508CCF808804D68D9F80060DB
:1006B000ED024D4601D5164300E096432E604D688D
:1006C000DAF80060AD02554601D5164300E09643C6
:1006D0002E604D68DBF80060AD035D4601D5164322
:1006E00000E096432E604D68DEF80060ED0375462D
:1006F00001D5164300E096432E60641C0A68164636
:10070000E2407FF429AFBDE8F88F00000804014003
:1007100000001110001002400000014000080140DC
:10072000000C01400010014000140140001801407D
:10073000001C01400AB1016170470904FBE7000099
:1007400001488068704700000000002070B5040078
:1007500025D094F83D00002520B984F83C5020466F
:1007600000F0B8F8242084F83D002068016821F0EA
:10077000010101602068016841F4004101602068C6
:10078000016821F40041016000F068FA4D4A616897
:10079000914201D84C4900E04C49884201D20120E5
:1007A00070BD4B492368B0FBF1F15E6826F03F064F
:1007B0000E435E606368934206D94FF496735943C3
:1007C0004FF47A73B1FBF3F12368491C1E6A26F0DB
:1007D0003F06314319626168914210D84900401EBA
:1007E000B0FBF1F2521CC2F30B02042A01D2042026
:1007F00022E0B0FBF1F0401CC0F30B001CE0A2684B
:10080000F2B301EBC10303EB0116431EB3FBF6F396
:100810005B1C43F480431B0549D092B301EBC1023A
:1008200002EB0111401EB0FBF1F0401CC0F30B00C5
:1008300040F4804040F400402168CA694CF6FF73E0
:100840009A431043C861D4E9071001432068026845
:1008500022F0C00211430160D4E903010143206882
:10086000826848F2FF339A4311438160D4E905015D
:1008700008432168CA6822F0FF021043C86001E003
:100880000EE016E02068016841F001010160256476
:10089000202084F83D00256384F83E50002070BD80
:1008A00001EB4106431EB3FBF6F35B1CB3E70120EB
:1008B000C2E701EB4101401EB0FBF1F0401CC0F368
:1008C0000B00B7E7A086010080841E0000093D00F0
:1008D00040420F0010B586B00021009101910291B5
:1008E000039100680F4988421AD10F4CA06940F06B
:1008F0000800A061A069694600F008000490C020CB
:10090000009012200190032003900848FFF716FE84
:10091000E06940F40010E061E06900F40010049028
:1009200006B010BD0054004000100240000C014011
:1009300002488168027811448160704700000020FD
:10094000074810B5016841F010010160032000F074
:1009500067F80F2000F006F800F024F8002010BD22
:100960000020024070B50D4D04464FF47A7128788E
:10097000B1FBF0F00A490968B1FBF0F000F0D8FBD8
:1009800048B9102C07D200222146501E00F028F84A
:1009900000206C6070BD012070BD000000000020D0
:1009A0000C0000200C4808B5816941F0010181610B
:1009B000816901F001010091C16941F08051C1617B
:1009C000C06900F0805000900448416821F0E06167
:1009D00041F00071416008BD00100240000001407C
:1009E000F0B40E4B1B680C46C3F30223C3F107059A
:1009F000042D00D90425191D072901D2002300E088
:100A0000DB1E012606FA05F1491E214099409E4051
:100A1000761E16403143F0BC01F0AFB80CED00E09B
:100A2000064900F0070208684FF6FF03184040EA45
:100A30000220034A10430860704700000CED00E0FC
:100A40000000FA052DE9F84305460078354CC0074B
:100A500054D0E0690026C00008D4E06940F080501E
:100A6000E061E069012600F0805000902E480168A6
:100A7000C90512D40168804641F480710160FFF716
:100A80005FFE074605E000BFFFF75AFEC01B642863
:100A900023D8D8F80000C005F6D5206A10F44070BD
:100AA00021D0A98801F4407181421CD0206A1F49DD
:100AB000012220F440700A6000220A602062C00710
:100AC00011D0FFF73DFE074641F2883808E000BF2D
:100AD000FFF736FEC11B414502D90320BDE8F8836C
:100AE000206A8007F4D5206A696820F440700843C2
:100AF00020621EB1E06920F08050E0612878800714
:100B000005D56068A96820F44040084360602878F3
:100B1000C00605D56068696920F4800008436060FC
:100B20000020DBE700100240007000404004424219
:100B30002DE9F0470F46050061D0434E306800F0C4
:100B40000700B84209D2306820F00700384330600F
:100B5000306800F00700B84251D128683B4C81074B
:100B600012D5400703D5606840F4E06060602878E3
:100B7000000703D5606840F4605060606068A96851
:100B800020F0F000084360602878C00728D068682B
:100B9000012810D02168022810D0890700292EDAF8
:100BA000616821F0030101436160FFF7C9FD8046E0
:100BB00041F288390DE021688903EFE78901EDE70B
:100BC000FFF7BEFDA0EB0801494502D90320BDE8AF
:100BD000F0876068696800F00C00B0EB810FEFD11E
:100BE000306800F00700B8420BD9306820F00700E9
:100BF00038433060306800F00700B84201D001206F
:100C0000E5E72878400705D56068E96820F4E060EA
:100C1000084360602878000706D56068296920F4D9
:100C2000605040EAC100606000F038F86168084A2E
:100C3000C1F30311515CC8400649086006480068CA
:100C4000FFF790FE0020C2E70020024000100240A3
:100C5000F41B00080C000020040000200448054993
:100C600000684968044AC1F30221515CC8407047DA
:100C70000C00002000100240041C00080448054934
:100C800000684968044AC1F3C221515CC8407047FA
:100C90000C00002000100240041C00080E4A51689D
:100CA0000E4801F00C03042B11D0082B0FD10C4877
:100CB000C1F38343C903C05C0AD55168084AC1F334
:100CC0004041921E515C054A5043B0FBF1F0704721
:100CD00004494843704700000010024000127A00A7
:100CE000E41B000800093D002DE9F84F040070D016
:100CF0002078C04DC00749D06868C0F38100012842
:100D000007D06868C0F38100022809D16868C00371
:100D100006D52868800339D560680028E7D035E01B
:100D20006068B0F5803F0BD010B1B0F5A02F11D0A6
:100D3000286820F480302860286820F4802002E0B1
:100D4000286840F480302860606890B1FFF7F8FCB4
:100D500006460AE0286840F480202860F0E700BFDB
:100D6000FFF7EEFC801B642873D828688003F7D552
:100D70000CE0FFF7E5FC064605E000BFFFF7E0FCEE
:100D8000801B6428F0D828688003F7D420789A4E16
:100D900080074FF001094FF0000839D5686810F05E
:100DA0000C0F07D06868C0F38100022809D1686879
:100DB000C00306D42868800714D52069012808D10B
:100DC00010E02069B0B1C6F80090FFF7B9FC074603
:100DD00005E00AE1FFF7B4FCC01B0228C4D828686C
:100DE0008007F7D52868616920F0F80040EAC10063
:100DF00028600DE0C6F80080FFF7A2FC074604E07B
:100E0000FFF79EFCC01B022823D828688007F7D470
:100E1000207800072CD57948A169D9B1C0F8009095
:100E2000FFF78EFC074604E0FFF78AFCC01B022890
:100E30000FD8686A8007F7D571484FF4FA510068F7
:100E4000B0FBF1F0009000BF0098411E0091FAD273
:100E50000EE080E0C0F80080FFF772FC074604E077
:100E6000FFF76EFCC01B022875D8686A8007F7D4AC
:100E70002078400760D5E8690027C00008D4E869F9
:100E800040F08050E861E869012700F08050009050
:100E90005C480168C90513D40168834641F4807138
:100EA0000160FFF74DFC824606E000BFFFF748FCFB
:100EB000A0EB0A0064284ED8DBF80000C005F5D589
:100EC000E06801280AD008B1052813D0286A20F06C
:100ED00001002862286A20F0040002E0286A40F03D
:100EE00001002862E06841F2883B98B1FFF728FCD6
:100EF00082460BE0286A40F004002862EEE700BF5B
:100F0000FFF71EFCA0EB0A0159455AD8286A800752
:100F1000F6D50CE0FFF714FC824605E0FFF710FC65
:100F2000A0EB0A0159454CD8286A8007F6D41FB1B6
:100F3000E86920F08050E861E06988B36968C1F32E
:100F40008101022944D00228C6F8608004D0FFF74E
:100F5000F7FB044638E034E0FFF7F2FB074604E015
:100F6000FFF7EEFBC01B02282BD828688001F7D4BE
:100F7000206AB0F5803F05D16868A16820F4003090
:100F800008436860D4E908010843696821F47411D2
:100F900008436860C6F86090FFF7D2FB044606E09D
:100FA00025E000BFFFF7CCFB001B022809D828680A
:100FB0008001F7D51BE000BFFFF7C2FB001B022832
:100FC00002D90320BDE8F88F28688001F4D40EE030
:100FD0000128F7D06868226A00F48031914204D178
:100FE000616A00F47010884201D00120EAE7002015
:100FF000E8E7000000100240000042428004424244
:101000000C0000200070004070B5040009D0606A38
:10101000002540B125616561A56294F8510040B199
:101020000CE0012070BD6068B0F5827FF4D0E5610E
:10103000F2E784F85050204600F040F8022084F88F
:1010400051002068016821F040010160A0882189D9
:1010500000F4827001F404410843A18901F40061A5
:101060000843217C01F002010843217D01F00101C8
:101070000843218B01F400710843217F01F03801FE
:10108000084394F8201001F080010843218D01F4F9
:101090000051084321680860A069042101EA10405A
:1010A000216848602068C16921F40061C1616565FB
:1010B000012084F85100002070BD000030B585B0DB
:1010C0000024009401940294039400681549884216
:1010D00025D11548C16941F48041C161C16901F45C
:1010E00080410491816941F00801816180690F4D5F
:1010F00000F0080004904FF420400090022001907E
:101100000320039069462846FFF718FA4FF4804001
:10111000CDE90004694628460294FFF70FFA05B0AE
:1011200030BD00000038004000100240000C0140BB
:1011300010B5401EB0F1807F01D3012010BD4FF0EB
:10114000E02460610F21601700F017FD0020A0610E
:1011500007202061002010BD70B590F83C20012AC6
:101160002CD0012480F83C40022280F83D20036806
:101170005A689D6822F070060A6832435A60104B24
:1011800002689A420ED00F4B9A420BD0B2F1804FB8
:1011900008D00D4B9A4205D00C4B9A4202D00C4B12
:1011A0009A4204D1496825F080031943916080F880
:1011B0003D40002180F83C10084670BD022070BD03
:1011C000002C0140003401400004004000080040B1
:1011D000000C004000B585B0002100910191029102
:1011E000039100680B49884212D10B48816941F094
:1011F000040181618069694600F004000490402088
:10120000009002200190032003900448FFF796F914
:1012100005B000BD0004004000100240000801407D
:1012200070B5044690F83C0000260D4601280FD00A
:10123000012084F83C006AB1042A1DD0082A2FD06E
:101240000C2A3FD00126002084F83C00304670BDB7
:10125000022070BD206800F071FB2068816941F0B8
:10126000080181612068816921F0040181612068A1
:1012700081692A69114311E0206800F08FFB206822
:10128000816941F4006181612068816921F4806194
:101290008161206881692A6941EA02218161D2E77E
:1012A000206800F0B1FB2068C16941F00801C1610C
:1012B0002068C16921F00401C1612068C1692A69FF
:1012C000114311E0206800F0D3FB2068C16941F4AC
:1012D0000061C1612068C16921F48061C161206839
:1012E000C1692A6941EA0221C161ACE710B5040075
:1012F00003D094F83D0010B107E0012010BD00209C
:1013000084F83C00204600F01FF8022084F83D00DD
:10131000211D206800F0C4FA012084F8460084F8FA
:101320003E0084F83F0084F8400084F8410084F8CF
:10133000420084F8430084F8440084F8450084F8AF
:101340003D00002010BD000008B500680649884235
:1013500008D10648C16941F00201C161C06900F0CD
:101360000200009008BD0000000400400010024090
:1013700070B5040004D094F84100002510B106E0D7
:10138000012070BD84F84050204600F023F824204E
:1013900084F841002068C16821F40051C1602046F2
:1013A00000F08EFB2068016921F490410161206802
:1013B000416921F02A0141612068C16841F400516E
:1013C000C1606564202084F8410084F842006563B0
:1013D000002070BD70B586B0002400940194029482
:1013E000039403682B482A4E022103220515B342B9
:1013F00021D1836943F480438361836903F480438B
:101400000493836943F0040383618069224E00F0F2
:10141000040004900802CDE90001039269463046B9
:10142000FFF78CF8CDE90054694630460294FFF787
:1014300085F806B070BD194EB342FAD1C36943F4C2
:101440008023C361C36903F480230493836943F059
:10145000100383618069CDE9005100F01000CDE9EF
:1014600003200F4D69462846FFF768F8E814CDE9D8
:101470000004694628460294FFF760F8094841686D
:1014800021F0300141F0E06141F010014160D0E70E
:1014900000380140001002400008014000480040B0
:1014A0000010014000000140FEE70000FEB50024EE
:1014B0001B480094019419490294016089158160C8
:1014C000012505730475032606614FF4602144600D
:1014D000C161FEF71DFF08B1FEF799FE05200094DB
:1014E000CDE9015069460E48FEF794FE08B1FEF7BB
:1014F0008EFE0224CDE9005469460948FEF78AFEB3
:1015000008B1FEF784FECDE9004669460448FEF7BF
:1015100081FE002801D0FEF77AFEFEBD00240140C6
:1015200010000020054808B5416941F00101416102
:10153000406900F00100009008BD0000001002406A
:101540002DE9F04F85B0002554480095019502958E
:101550000395816941F010018161816901F01001F9
:101560000491816941F020018161816901F02001CC
:101570000491816941F004018161816901F00401F4
:101580000491816941F0080181618069DFF810A14F
:1015900000F0080004900122CF215046FFF7CAF85E
:1015A000DFF800B141F2B807012239465846FFF78B
:1015B000C1F841F21808012241463B48FFF7BAF84A
:1015C0004FF40069002249465846FFF7B3F801225C
:1015D00004213648FFF7AEF84FF47040CDE900051E
:1015E0000124694602945046FEF7A8FFCF20CDE9BA
:1015F00000040326CDE9024669465046FEF79EFFE9
:10160000CDE90074CDE9024669465846FEF796FFDB
:101610004FF44C7002278DE8A10069465046FEF752
:101620008DFF40F603408DE8A10069461E48FEF795
:1016300085FFCDE90084CDE9024669461A48FEF7E8
:101640007DFF20028DE8A10069465846FEF776FF2F
:10165000CDF800900396CDE9014769465846FEF75C
:101660006DFFE003CDE90005694602945846FEF798
:1016700065FF0420CDE90004CDE9024669460B4828
:10168000FEF75CFF4FF44870CDE90005694602940F
:101690000548FEF753FF05B0BDE8F08F001002408B
:1016A0000010014000080140000C014000140140FE
:1016B0000D4810B50B4901600C49416000214FF401
:1016C00080428160C0E9031241618161C1610162B0
:1016D000FFF73CF8002803D0BDE81040FEF797BDA7
:1016E00010BD00000054004084000020A0860100CE
:1016F0000F4810B50D4901604FF48271416000211F
:101700008160C1604FF400720161C0E90512C161DE
:101710000162416281620A21C162FFF775FC002803
:1017200003D0BDE81040FEF772BD10BD0038004088
:10173000D800002010B58AB0002407941C21684608
:101740000894FEF71AFD1748154901602321C0E9E6
:1017500001146321C0E9031480218161FFF7C6FDF4
:1017600008B1FEF754FD079407A90E480894FFF747
:10177000F3FC08B1FEF74BFD602000903220CDE96C
:1017800001040022694607480494FFF749FD08B1A7
:10179000FEF73DFD0348FFF71DFD0AB010BD000038
:1017A00000040040300100200C4810B50A490160D7
:1017B0004FF416514160002181600C22C160C0E9E4
:1017C00004128161C161FFF7D3FD002803D0BDE899
:1017D0001040FEF71CBD10BD00380140780100200C
:1017E0000C4810B50A4901604FF4E1314160002115
:1017F00081600C22C160C0E904128161C161FFF700
:10180000B7FD002803D0BDE81040FEF700BD10BDB5
:1018100000480040C0010020FEE7FEE77047704727
:10182000FFF786B830B595B028216846FEF7A5FCCD
:1018300014210AA8FEF7A1FC18210FA8FEF79DFCB1
:1018400001210804CDE9001000250295022404912D
:10185000CDE907404FF4E01009906846FFF744FADD
:1018600008B172B6FEE70AA90F2081E831004FF4F3
:101870008060CDE90D0502210AA8FFF759F908B1EA
:1018800072B6FEE74FF4004011900F940FA8FFF7D7
:10189000D9F8002801D072B6FEE715B030BD704708
:1018A000F0B50268204C214D214E224F224B4FF0C3
:1018B000804CA04209D0984207D0604505D0A8428C
:1018C00003D0B04201D0B84204D122F0700E4A6871
:1018D00042EA0E02A04209D0984207D0604505D0E6
:1018E000A84203D0B04201D0B84203D122F44075DF
:1018F000CA682A434D6922F080022A4302608A683E
:10190000C2620A688262A04201D0984201D109698C
:101910000163012141610169C90703D0016921F017
:1019200001010161F0BD0000002C014000040040F5
:1019300000080040000C004000340140F0B5036A8C
:10194000026A22F00102026242688469124E24F0A7
:1019500073050C682C4323F002058B682B430D4D57
:10196000A84201D0B04205D123F00807CB683B4321
:1019700023F00403A84201D0B04205D14D6922F4FE
:10198000407215438A692A43426084614968416311
:101990000362F0BD002C014000340140F0B5026A42
:1019A000036A23F010030362436884690D6824F41A
:1019B000E64444EA05248D6822F0200242EA05123A
:1019C0000F4D104EA84201D0B04206D1CF6822F090
:1019D000800242EA071222F04002A84201D0B0423F
:1019E00007D14D6923F4406343EA85038D6943EAD7
:1019F000850343608461496881630262F0BD000031
:101A0000002C014000340140F0B5026A036A23F45F
:101A1000807303624368C46922F4007224F0730582
:101A20000C68124E2C438D6842EA05220E4DA842E6
:101A300001D0B04206D1CF6822F4006242EA072208
:101A400022F48062A84201D0B04207D14D6923F44C
:101A5000405343EA05138D6943EA05134360C461AB
:101A60004968C1630262F0BD002C014000340140AE
:101A700030B5046A026A22F4805202624268C36985
:101A80000D6823F4E64343EA05238D6824F40054EB
:101A900044EA0534084DA84202D0084DA84204D1BA
:101AA0004D6922F4804242EA85124260C36149686E
:101AB0000164046230BD0000002C0140003401408C
:101AC00070B5044600680169E26821F44051114391
:101AD00001612169A0680843616908432168CA68F7
:101AE00041F20C639A430243CA6020684169A269CB
:101AF00021F44071114341611E492068884202D19E
:101B0000FFF7BCF801E0FFF7A9F800EBC00101EB1B
:101B10000012606864218000B2FBF0F3B3FBF1F3C4
:101B20006FF018067343B2FBF0F5B2FBF0F605EB6D
:101B30008305322303EB0515B5FBF1F5B6FBF1F692
:101B400005F0F00505EB0615B2FBF0F6B2FBF0F080
:101B5000B0FBF1F06FF01802504306EB800003EB8E
:101B60000010B0FBF1F0216800F00F0028448860FD
:101B700070BD000000380140FEE70907090E00288B
:101B800004DB00F1E02080F80014704700F00F0043
:101B900000F1E02080F8141D704702E008C8121F11
:101BA00008C1002AFAD170477047002001E001C146
:101BB000121F002AFBD17047FEF7C2FEFFF732FE6C
:101BC000FFF7BEFCFFF7AEFCFFF770FCFFF7B2FDBE
:101BD000FFF76EFDFFF78CFDFFF7E6FDFFF700FE58
:101BE000FEE7010202030405060708090A0B0C0DB3
:101BF0000E0F10100000000000000000010203049E
:101C00000607080900000000010203042C1C00085C
:101C100000000020100000009A1B00083C1C000877
:101C200010000020F8050000AA1B000801000000B9
:0C1C3000100000000000000000127A000C
:0400000508000131BD
:00000001FF
