:020000040800F2
:10000000480A002049010008C32600088D20000886
:10001000C1260008350A0008DD3A0008000000008B
:10002000000000000000000000000000C1340008D3
:10003000610A000800000000D5310008C334000840
:100040006301000863010008630100086301000800
:1000500063010008630100086301000863010008F0
:1000600063010008630100086301000863010008E0
:1000700063010008630100086301000863010008D0
:1000800063010008630100086301000863010008C0
:1000900063010008630100086301000863010008B0
:1000A00063010008630100086301000863010008A0
:1000B0006301000863010008630100086301000890
:1000C0006301000863010008630100086301000880
:1000D0006301000863010008630100086301000870
:1000E0006301000863010008630100086301000860
:1000F0006301000863010008630100086301000850
:10010000630100086301000863010008630100083F
:10011000630100086301000863010008630100082F
:10012000630100086301000863010008630100081F
:10013000DFF810D000F09CF9004800470B3D0008A4
:10014000AFF30080480A0020064880470648004771
:10015000FEE7FEE7FEE7FEE7FEE7FEE7FEE7FEE777
:10016000FEE7FEE7413500083101000840EA0103DF
:100170009B0703D009E008C9121F08C0042AFAD25D
:1001800003E011F8013B00F8013B521EF9D2704721
:10019000D2B201E000F8012B491EFBD270470022C9
:1001A000F6E710B513460A4604461946FFF7F0FF76
:1001B000204610BDF0B480EA0102D40F4200B2EB39
:1001C000410F02D20246084611464A0042D0C30DF2
:1001D000DDB2C1F3C752AD1A202D35DAC1F31601D5
:1001E00041F4000204B15242C5F1200602FA06F1C0
:1001F0002A411044B3EBD05F23D0C4B1012DA0EB52
:10020000C35009DCF0BC4FF0004202EAC352DBB23B
:1002100000F5000000F0FDB8400000F1807000EB38
:10022000C350A0F1807040EAD170490009E049084C
:1002300041EAC071A0EBC35000F50000400800EB9C
:10024000C350F0BC00F0DCB86142012202EB410176
:10025000001BF6E7F0BC704781F00041AAE780F090
:100260000040A7E780EA010210B502F00043400019
:1002700022D04A001FD0010E01EB1261C0F35600DC
:10028000C2F3560240F4000042F40002A0FB022038
:1002900000047F39140400D0401C50EA124001D4FD
:1002A0004000491EC2B20C0604EBD010401C4008AE
:1002B000802A02D003E0002010BD20F001000029B8
:1002C00000DA0020184310BD30B480EA010202F0C9
:1002D000004530F0004221F0004013D090B1C30D32
:1002E000D40DC2F31601C0F31600E41A41F4000164
:1002F00040F400027D34914201D3641C00E04900C7
:10030000002C02DA30BC002070474FF400000023BC
:10031000914201D3891A034340084FEA4101F7D1C2
:1003200051B1914202D14FF0004105E002D24FF0AD
:10033000010101E06FF0010103EBC450284430BC1F
:1003400000F05EB8420005D0C0F3C752524291425D
:1003500001DC0020704700EBC1507047C10F80EAFC
:10036000E0700844CA079623002100F052B8962393
:100370000022114600F04DB800F0004220F000408D
:10038000C10DC0F3160040F400007F2901DA0020FF
:100390007047962903DCC1F19601C84001E0963907
:1003A0008840002AF4D0404270470000002801DB5A
:1003B000C0F10040002901DBC1F1004181427047DA
:1003C000002801DBC0F10040002901DBC1F1004140
:1003D0008842704730B50B46014600202022012498
:1003E00009E021FA02F59D4205D303FA02F5491B03
:1003F00004FA02F52844151EA2F10102F1DC30BD19
:100400000029A8BF7047401C490008BF20F0010028
:10041000704710B4B0FA80FC00FA0CF050EA010406
:1004200004BF10BC704749B1CCF1200421FA04F498
:1004300011FA0CF118BF012121430843A3EB0C0171
:10044000CB1D4FEA00614FEA102042BF002010BCD4
:10045000704700EBC35010440029A4BF10BC704784
:10046000401C490008BF20F0010010BC704700008C
:10047000064C074D06E0E06840F0010394E80700F1
:1004800098471034AC42F6D3FFF756FEDC4F000815
:10049000FC4F000870B5044600688168C943C9076D
:1004A00017D1816821F00101816000F04BFE054603
:1004B0000AE000BF00F046FE401B022804D9206875
:1004C0008068C043C00706D020688068C043C0076A
:1004D000F0D0002070BDA06A40F01000A062E06A79
:1004E00040F00100E062012070BD10B50146406A95
:1004F000826A12F0500F05D0006A026BBDE810400E
:1005000008461047816A41F4007181620168896878
:10051000C1F3424107290CD1017B51B9816A21F411
:1005200080718162816AC90403D4816A41F001014A
:10053000816200F017FB10BD10B5406A816A41F07E
:1005400040018162C16A41F00401C16200F00CFB0C
:1005500010BD10B5406A00F006FB10BDF8B50026CE
:100560000446009600688168C943C9072DD0816898
:1005700041F001018160164816490068B0FBF1F0B6
:1005800000E0401E00900028FBD100F0DBFD054696
:1005900016E000BF00F0D6FD401B022810D92068ED
:1005A0008068C043C0070BD0A06A40F01000A06272
:1005B000E06A40F00100E06284F824600120F8BDA8
:1005C00020688068C043C007E4D10020F8BD000067
:1005D0003800002040420F0010B50124204600F0F2
:1005E00063F930B1204600F009F810B1204600F060
:1005F00001F9641CE4B20F2CF0D910BD70B5234C86
:10060000234D10283FD2DFE800F03E082929292990
:1006100029292929292D2F3629384FF400712846F8
:1006200000F086FDA0B100244FF48071284600F050
:100630007FFD78B15FF000054FF40041154800F0F0
:1006400077FD48B1002061190844012811D91AE04A
:100650000124E9E70125EFE70120F4E7BDE8704058
:1006600000F01AB8002000E0012003F0E3F8A042F7
:1006700009DA012070BD0220F7E72021284600F0AA
:1006800057FD0128F6D0002070BD00000000684230
:10069000000C0140000801402DE9FE4F534C4FF47F
:1006A0000071204600F044FDF0B3002001904FF4AB
:1006B0008071204600F03CFDB8B3002000904FF45C
:1006C00000414B4800F034FD80B30027012108466B
:1006D00002F0F8FD04460221012002F0F3FD8246FB
:1006E0000121022002F0EEFD83460221084602F0BD
:1006F000E9FD81460121032002F0E4FD804602214C
:10070000032002F0DFFD0646012002F0C5FD029045
:10071000022002F0C1FD0546032002F0BDFD019953
:1007200009B3009949B122E001E002E003E00120B1
:10073000BCE70120C2E70127C8E7C7B9012C50D1A7
:10074000BAF1010F4DD1BBF1000F4AD1B9F1000F41
:1007500047D1B8F1000F44D1FEB90299012940D127
:10076000DDB970B33DE011B9009901B127B1DDE900
:100770000021114312D025E054EA0A0431D1BBF123
:10078000010F2ED1B9F1010F2BD1B8F1000F28D1F3
:100790001EB9029909B9012DE3D022E097B144EACC
:1007A0000A0444EA0B0454EA09041AD1B8F1010F0F
:1007B00017D1012E15D1029999B995B9012811D0F7
:1007C0000FE011E039430CD144EA0A0444EA0B0477
:1007D00044EA090454EA080403D116B9029900292D
:1007E000BED00020BDE8FE8F0120FBE7000C0140D9
:1007F0000008014010B5401E0E280FD8084A0121FC
:100800008140908889B28843908003D1054908705F
:1008100000F072F8BDE8104000F0B0B810BD000064
:10082000180000200000002030B500230C460546CB
:1008300001220AE0104600F037F810B1EA545B1CC0
:10084000DBB2521CD2B20F2A01D8A342F2D318460F
:1008500030BD00B500220123184600F025F808B18C
:10086000521CD2B25B1CDBB20F2BF5D9104600BD77
:1008700070B50A4D0A480024AC800470094E01226C
:100880001021304600F059FC01220821304600F0CA
:1008900054FC2C70AC606C7070BD0000180000201F
:1008A00000000020000C0140401E0E2808D8012145
:1008B000814088B203498988014201D001207047F4
:1008C000002070471800002010B5421E0E2A0ED8D6
:1008D00001219140064A93880B4306499380087092
:1008E000012000F009F8BDE8104000F047B810BD45
:1008F0001800002000000020044B08B1002200E096
:1009000001221021184600F018BC0000000C014024
:1009100070B50B4D0446287000F014FCA86009481F
:1009200044B1032C05D10022082100F006FC01206F
:10093000687070BD0122082100F0FFFB0020F7E77E
:1009400018000020000C014010B500F007F800F07E
:1009500039F8BDE81040FFF73FBE000010B5FFF7C3
:1009600078FF0100044801D0002200E00122BDE828
:100970001040102100F0E1BB000C0140104810B500
:100980008088C0B10B20FFF78FFF38B90C20FFF72C
:100990008BFF18B90D20FFF787FF08B103200AE08D
:1009A0000120FFF781FF18B90E20FFF77DFF08B186
:1009B000012000E00220BDE81040FFF7A9BF0000C1
:1009C000180000207CB500F0BDFB0546FFF741FF95
:1009D000164EE0B105216846FFF726FF9DF800108E
:1009E000012906D00E2904D0891E08290FD83220EB
:1009F00001E04FF47A700E4CE168691A81420BD322
:100A0000A07850B10020A07048B1012208E0002277
:100A10000821304600F091FB7CBD0120F3E7002265
:100A20000821304600F089FBE5607CBD000C0140E8
:100A300018000020FEE730B590F840500124AC408B
:100A4000C56B6C60046863604368102B036803D057
:100A500099600068C26030BD9A600068C16030BDB6
:100A6000704772B6FEE70000F8B50024009490F8D5
:100A700024202546012A12D0012280F824204A6829
:100A80001F23072A0DD20668776B521E02EB8202E3
:100A900093409F430B6893401F43776319E0022004
:100AA000F8BD06680D2A0AD2376BD21F02EB82020C
:100AB00093409F430B6893401F43376309E0F76AF5
:100AC0000D3A02EB820293409F430B6893401F4311
:100AD000F7620A68072306680A2A0AD3F7680A3AFF
:100AE00002EB420293409F438B6893401F43F760A1
:100AF00008E0376902EB420293409F438B689340C2
:100B00001F4337610A68102A01D0112A20D1124BE5
:100B100002689A4217D193681B0219D4936843F470
:100B2000000393600968102912D10C490C4A096826
:100B3000B1FBF2F101EB8101490000E0491E009197
:100B40000029FBD104E0816A41F020018162012487
:100B500080F824502046F8BD0024014038000020D1
:100B600040420F0070477047704700002DE9F04188
:100B700004004FF000057FD0A06A002628B9E66285
:100B800084F82460204600F081F82046FFF782FCBC
:100B9000A16AC90600D420B1A06A40F01000A0628A
:100BA0006AE0A16A21F4885141F00201A16233494F
:100BB00023688B42E16904D1B1F5402F01D14FF494
:100BC0000021277B4FF4807C41EA470261680A4399
:100BD000A168614508D0012906D0002194F814E0ED
:100BE000BEF1010F02D00AE06146F7E7C7B1A76A7C
:100BF00047F02007A762E76A47F00107E7625F68EE
:100C000027F469470F435F60236899681C4F394098
:100C100011439960A16861450BD0012909D00CE00E
:100C2000DFF860E0A7690EEB47370F4347F4006138
:100C3000E5E7218A0D05A5F580152168CB6A23F427
:100C400070032B43CB62216889680F4B1940914296
:100C500008D1E662A16A21F0020141F00101A1621E
:100C6000BDE8F081A06A20F0020040F01000A06210
:100C7000E06A40F00100E0620120F1E7003C014041
:100C8000FDF7E1FF00E0FFFFFE0E1FFF70B586B02D
:100C900000250646009501950295039500681A49BE
:100CA00088422ED11949886940F4007088618869AA
:100CB00000F400700490886940F00400886188693D
:100CC000694600F004000490072000900320019082
:100CD0000F4800F031F9104C0E48C4E9000580209F
:100CE000C4E9025040002061800060612020C4E916
:100CF0000605204600F098F808B1FFF7B2FE34620E
:100D0000666206B070BD0000002401400010024081
:100D100000080140080002406C0000202DE9F04767
:100D2000894604463B4900683B4F0E1D9046884269
:100D300001D0B84207D1306810F4702F03D00125DC
:100D40002846BDE8F08794F8240001280CD0012043
:100D500084F824002046FFF701FC05004FF0000056
:100D600004D084F82400EBE70220EAE7A16A40F609
:100D70000162914341F48071A1622168B94218D1A6
:100D8000326812F4702F14D0A16A41F48011A1626C
:100D90003168490505D5A16A21F4005141F480511B
:100DA000A162A16AC9040AD5E16A21F00601E162E3
:100DB00006E0A26A22F48012A2624968E9E7E062D2
:100DC00084F82400216A15488862216A1448C862A0
:100DD000216A1448086321686FF0020008602068E7
:100DE000816841F480718160216843464A464C31F4
:100DF000206A00F057F820688168C1F34241072952
:100E0000816803D041F48011816099E741F4A00129
:100E1000FAE700000024014000280140EB0400082C
:100E2000530500083905000830B560B11A4B026857
:100E300014219A4209D2194B1344B3FBF1F18900F2
:100E4000016417490AE0012030BD134B5B42134493
:100E5000B3FBF1F1890001640F490839C163022134
:100E600080F82110136843F6F0718B43F0E9011408
:100E70002143D0E902452C432143046921434469BD
:100E800021438469214319431160002141630122F8
:100E900042770177084630BD08040240F8FFFDBFE5
:100EA0000000024070B5044690F82000002501289B
:100EB0000CD0012084F8200094F821600020012E3D
:100EC00006D084F820000225284670BD022070BD9F
:100ED000022684F82160A0632068066826F00106D7
:100EE00006602046FFF7A7FDE06A00282068016839
:100EF00002D041F00E0106E021F0040101602068FB
:100F0000016841F00A0101602068016841F00101B7
:100F10000160D9E770B5044600F014F90546601C7D
:100F200002D004480078044400F00CF9401BA042B1
:100F3000FAD370BD2C0000202DE9F84FDFF8C891DE
:100F40000024A9F1040B23460F2709F1040AABF191
:100F5000040ED1E00125A54006EA0502AA4276D199
:100F6000DFF8A8C14E68A6EB0C0866452BD00DDC57
:100F7000032E34D005DC36B3012E19D0022E2FD12A
:100F80001BE0112E16D0122E2AD119E0B8F5881FB9
:100F900019D006DCB8F5803F15D0B8F5801F1FD1F9
:100FA00011E0B8F5001F0ED0B8F5041F18D10AE003
:100FB000CB6815E0CB681B1D12E0CB6808330FE04F
:100FC000CB680C330CE08B682BB1012B4FF008037E
:100FD00003D0456104E0042302E0056100E0002342
:100FE000FF2A01D8064601E000F104064FEA840515
:100FF00001D9A5F12005D6F8008007FA05FC28EAFA
:101000000C0803FA05F548EA0508C6F800804D68A3
:10101000ED0070D53E4DAE6946F00106AE61AD699A
:1010200024F0030605F0010500953A4D06EB050C8A
:10103000DCF80850A607360F07FA06F825EA080577
:10104000DFF8D480404503D14FF0000825E052E09E
:10105000DFF8C880404502D14FF001081DE0DFF8FD
:10106000C080404502D14FF0020816E0DFF8B4809E
:10107000404502D14FF003080FE0DFF8AC80404557
:1010800002D14FF0040808E0DFF8A080404502D10B
:101090004FF0050801E04FF0060808FA06F848EAA4
:1010A0000508CCF808804D68D9F80060ED024D467F
:1010B00001D5164300E096432E604D68DAF80060D3
:1010C000AD02554601D5164300E096432E604D68AB
:1010D000DBF80060AD035D4601D5164300E09643A2
:1010E0002E604D68DEF80060ED03754601D51643AD
:1010F00000E096432E60641C0A681646E2407FF4C6
:1011000029AFBDE8F88F000008040140000011106D
:10111000001002400000014000080140000C0140A6
:10112000001001400014014000180140001C014063
:101130008068084000D0012070470AB10161704703
:101140000904FBE701488068704700002C0000207C
:1011500070B5040025D094F83D00002520B984F82E
:101160003C50204600F04EF9242084F83D002068D1
:10117000016821F0010101602068016841F400412B
:1011800001602068016821F40041016000F0FEFA6E
:101190004D4A6168914201D84C4900E04C4988426F
:1011A00001D2012070BD4B492368B0FBF1F15E68AC
:1011B00026F03F060E435E606368934206D94FF403
:1011C000967359434FF47A73B1FBF3F12368491CCA
:1011D0001E6A26F03F06314319626168914210D8B9
:1011E0004900401EB0FBF1F2521CC2F30B02042A6C
:1011F00001D2042022E0B0FBF1F0401CC0F30B0050
:101200001CE0A268F2B301EBC10303EB0116431E1D
:10121000B3FBF6F35B1C43F480431B0549D092B348
:1012200001EBC10202EB0111401EB0FBF1F0401CCA
:10123000C0F30B0040F4804040F400402168CA69CC
:101240004CF6FF739A431043C861D4E90710014379
:101250002068026822F0C00211430160D4E9030152
:1012600001432068826848F2FF339A43114381604A
:10127000D4E9050108432168CA6822F0FF0210433F
:10128000C86001E00EE016E02068016841F001014D
:1012900001602564202084F83D00256384F83E50D9
:1012A000002070BD01EB4106431EB3FBF6F35B1C4F
:1012B000B3E70120C2E701EB4101401EB0FBF1F0B2
:1012C000401CC0F30B00B7E7A086010080841E001D
:1012D00000093D0040420F002DE9F84F1F4690469F
:1012E0008A460446DDF82890FFF72CFF054694F85F
:1012F0003D0020287FD11923012240492046009536
:1013000000F056FF002876D194F83C00012872D0F6
:10131000012084F83C0020680168C90703D10168F6
:1013200041F0010101602068016821F40061016061
:10133000212084F83D00102084F83E000026266419
:10134000C4F824806785608D20852D48E0622B4697
:101350004A465146204600F0B1FE90B920684169E6
:101360008069009036E02A464946204600F0C6FFD4
:1013700050B1206C042804D12068016841F4007148
:1013800001600120BDE8F88F606A2168007808617B
:10139000606A401C6062618D491E6185218D491E15
:1013A00089B2218522685369DB435B070BD451B1B5
:1013B00000781061606A401C6062608D401E60852C
:1013C000208D401E20852A464946204600F0C4FE56
:1013D0000028CED1208D0028C5D154F83D0B0168DE
:1013E00041F400710160202004F81E09E677667759
:1013F0000020C7E7FFE70220C4E70000020010005A
:101400000000FFFF10B586B000210091019102910C
:10141000039100680F4988421AD10F4CA06940F02F
:101420000800A061A069694600F008000490C0208F
:10143000009012200190032003900848FFF77CFDE4
:10144000E06940F40010E061E06900F400100490ED
:1014500006B010BD0054004000100240000C0140D6
:101460000248816802781144816070472C00002096
:10147000074810B5016841F010010160032000F039
:1014800067F80F2000F006F800F024F8002010BDE7
:101490000020024070B50D4D04464FF47A71287853
:1014A000B1FBF0F00A490968B1FBF0F000F0D8FB9D
:1014B00048B9102C07D200222146501E00F028F80F
:1014C00000206C6070BD012070BD00002C00002069
:1014D000380000200C4808B5816941F001018161A4
:1014E000816901F001010091C16941F08051C16140
:1014F000C06900F0805000900448416821F0E0612C
:1015000041F00071416008BD001002400000014040
:10151000F0B40E4B1B680C46C3F30223C3F107055E
:10152000042D00D90425191D072901D2002300E04C
:10153000DB1E012606FA05F1491E214099409E4016
:10154000761E16403143F0BC02F0DEBA0CED00E02E
:10155000064900F0070208684FF6FF03184040EA0A
:101560000220034A10430860704700000CED00E0C1
:101570000000FA052DE9F84305460078354CC00710
:1015800054D0E0690026C00008D4E06940F08050E3
:10159000E061E069012600F0805000902E4801686B
:1015A000C90512D40168804641F480710160FFF7DB
:1015B000C9FD074605E000BFFFF7C4FDC01B642856
:1015C00023D8D8F80000C005F6D5206A10F4407082
:1015D00021D0A98801F4407181421CD0206A1F49A2
:1015E000012220F440700A6000220A602062C007D5
:1015F00011D0FFF7A7FD074641F2883808E000BF89
:10160000FFF7A0FDC11B414502D90320BDE8F883C7
:10161000206A8007F4D5206A696820F44070084386
:1016200020621EB1E06920F08050E06128788007D8
:1016300005D56068A96820F44040084360602878B8
:10164000C00605D56068696920F4800008436060C1
:101650000020DBE7001002400070004040044242DE
:101660002DE9F0470F46050061D0434E306800F089
:101670000700B84209D2306820F0070038433060D4
:10168000306800F00700B84251D128683B4C810710
:1016900012D5400703D5606840F4E06060602878A8
:1016A000000703D5606840F4605060606068A96816
:1016B00020F0F000084360602878C00728D06868F0
:1016C000012810D02168022810D0890700292EDABD
:1016D000616821F0030101436160FFF733FD80463B
:1016E00041F288390DE021688903EFE78901EDE7D0
:1016F000FFF728FDA0EB0801494502D90320BDE80A
:10170000F0876068696800F00C00B0EB810FEFD1E2
:10171000306800F00700B8420BD9306820F00700AD
:1017200038433060306800F00700B84201D0012033
:10173000E5E72878400705D56068E96820F4E060AF
:10174000084360602878000706D56068296920F49E
:10175000605040EAC100606000F038F86168084AF3
:10176000C1F30311515CC84006490860064800688F
:10177000FFF790FE0020C2E7002002400010024068
:10178000874E00083800002030000020044805493A
:1017900000684968044AC1F30221515CC84070479F
:1017A0003800002000100240974E00080448054908
:1017B00000684968044AC1F3C221515CC8407047BF
:1017C0003800002000100240974E00080E4A516871
:1017D0000E4801F00C03042B11D0082B0FD10C483C
:1017E000C1F38343C903C05C0AD55168084AC1F3F9
:1017F0004041921E515C054A5043B0FBF1F07047E6
:1018000004494843704700000010024000127A006B
:10181000774E000800093D002DE9F84F040070D014
:101820002078C04DC00749D06868C0F38100012806
:1018300007D06868C0F38100022809D16868C00336
:1018400006D52868800339D560680028E7D035E0E0
:101850006068B0F5803F0BD010B1B0F5A02F11D06B
:10186000286820F480302860286820F4802002E076
:10187000286840F480302860606890B1FFF762FC0F
:1018800006460AE0286840F480202860F0E700BFA0
:10189000FFF758FC801B642873D828688003F7D5AD
:1018A0000CE0FFF74FFC064605E000BFFFF74AFCDF
:1018B000801B6428F0D828688003F7D420789A4EDB
:1018C00080074FF001094FF0000839D5686810F023
:1018D0000C0F07D06868C0F38100022809D168683E
:1018E000C00306D42868800714D52069012808D1D0
:1018F00010E02069B0B1C6F80090FFF723FC07465E
:1019000005E00AE1FFF71EFCC01B0228C4D82868C6
:101910008007F7D52868616920F0F80040EAC10027
:1019200028600DE0C6F80080FFF70CFC074604E0D5
:10193000FFF708FCC01B022823D828688007F7D4CB
:10194000207800072CD57948A169D9B1C0F800905A
:10195000FFF7F8FB074604E0FFF7F4FBC01B022883
:101960000FD8686A8007F7D571484FF4FA510068BC
:10197000B0FBF1F0009000BF0098411E0091FAD238
:101980000EE080E0C0F80080FFF7DCFB074604E0D3
:10199000FFF7D8FBC01B022875D8686A8007F7D408
:1019A0002078400760D5E8690027C00008D4E869BE
:1019B00040F08050E861E869012700F08050009015
:1019C0005C480168C90513D40168834641F48071FD
:1019D0000160FFF7B7FB824606E000BFFFF7B2FBEE
:1019E000A0EB0A0064284ED8DBF80000C005F5D54E
:1019F000E06801280AD008B1052813D0286A20F031
:101A000001002862286A20F0040002E0286A40F001
:101A100001002862E06841F2883B98B1FFF792FB31
:101A200082460BE0286A40F004002862EEE700BF1F
:101A3000FFF788FBA0EB0A0159455AD8286A8007AE
:101A4000F6D50CE0FFF77EFB824605E0FFF77AFB58
:101A5000A0EB0A0159454CD8286A8007F6D41FB17B
:101A6000E86920F08050E861E06988B36968C1F3F3
:101A70008101022944D00228C6F8608004D0FFF713
:101A800061FB044638E034E0FFF75CFB074604E006
:101A9000FFF758FBC01B02282BD828688001F7D419
:101AA000206AB0F5803F05D16868A16820F4003055
:101AB00008436860D4E908010843696821F4741197
:101AC00008436860C6F86090FFF73CFB044606E0F8
:101AD00025E000BFFFF736FB001B022809D8286865
:101AE0008001F7D51BE000BFFFF72CFB001B02288D
:101AF00002D90320BDE8F88F28688001F4D40EE0F5
:101B00000128F7D06868226A00F48031914204D13C
:101B1000616A00F47010884201D00120EAE70020D9
:101B2000E8E7000000100240000042428004424208
:101B3000380000200070004070B5040009D0606AD1
:101B4000002540B125616561A56294F8510040B15E
:101B50000CE0012070BD6068B0F5827FF4D0E561D3
:101B6000F2E784F85050204600F040F8022084F854
:101B700051002068016821F040010160A08821899E
:101B800000F4827001F404410843A18901F400616A
:101B90000843217C01F002010843217D01F001018D
:101BA0000843218B01F400710843217F01F03801C3
:101BB000084394F8201001F080010843218D01F4BE
:101BC0000051084321680860A069042101EA10401F
:101BD000216848602068C16921F40061C1616565C0
:101BE000012084F85100002070BD000030B585B0A0
:101BF00000240094019402940394006815498842DB
:101C000025D11548C16941F48041C161C16901F420
:101C100080410491816941F00801816180690F4D23
:101C200000F0080004904FF4204000900220019042
:101C30000320039069462846FFF77EF94FF4804061
:101C4000CDE90004694628460294FFF775F905B00E
:101C500030BD00000038004000100240000C014080
:101C600010B5401EB0F1807F01D3012010BD4FF0B0
:101C7000E02460610F21601701F046FF0020A061A1
:101C800007202061002010BD70B590F83C20012A8B
:101C90002CD0012480F83C40022280F83D200368CB
:101CA0005A689D6822F070060A6832435A60104BE9
:101CB00002689A420ED00F4B9A420BD0B2F1804F7D
:101CC00008D00D4B9A4205D00C4B9A4202D00C4BD7
:101CD0009A4204D1496825F080031943916080F845
:101CE0003D40002180F83C10084670BD022070BDC8
:101CF000002C014000340140000400400008004076
:101D0000000C004000B585B00021009101910291C6
:101D1000039100680B49884212D10B48816941F058
:101D2000040181618069694600F00400049040204C
:101D3000009002200190032003900448FFF7FCF874
:101D400005B000BD00040040001002400008014042
:101D500070B5044690F83C0000260D4601280FD0CF
:101D6000012084F83C006AB1042A1DD0082A2FD033
:101D70000C2A3FD00126002084F83C00304670BD7C
:101D8000022070BD206801F039FC2068816941F0B3
:101D9000080181612068816921F004018161206866
:101DA00081692A69114311E0206801F057FC20681D
:101DB000816941F4006181612068816921F4806159
:101DC0008161206881692A6941EA02218161D2E743
:101DD000206801F079FC2068C16941F00801C16107
:101DE0002068C16921F00401C1612068C1692A69C4
:101DF000114311E0206801F09BFC2068C16941F4A7
:101E00000061C1612068C16921F48061C1612068FD
:101E1000C1692A6941EA0221C161ACE710B5040039
:101E200003D094F83D0010B107E0012010BD002060
:101E300084F83C00204600F01FF8022084F83D00A2
:101E4000211D206801F07EFB012084F8460084F803
:101E50003E0084F83F0084F8400084F8410084F894
:101E6000420084F8430084F8440084F8450084F874
:101E70003D00002010BD000008B5006806498842FA
:101E800008D10648C16941F00201C161C06900F092
:101E90000200009008BD0000000400400010024055
:101EA00010B50446022249B104290ED0082913D0E6
:101EB00094F84100012816D0012010BD94F83E008E
:101EC0000128F9D184F83E200FE094F83F00012862
:101ED000F2D184F83F2008E094F840000128EBD1CB
:101EE00084F8402001E084F841200122206801F0BC
:101EF00077FB13492068134A884201D0904203D1EE
:101F0000436C43F400434364206888420DD0904200
:101F10000BD0B0F1804F08D00B49884205D00B4957
:101F2000884202D00A49884204D1816801F0070141
:101F3000062903D0016841F001010160002010BDB5
:101F4000002C014000340140000400400008004023
:101F5000000C004070B5040004D094F84100002546
:101F600010B106E0012070BD84F84050204600F01A
:101F700023F8242084F841002068C16821F400512E
:101F8000C160204601F04EFD2068016921F49041B6
:101F900001612068416921F02A0141612068C1681E
:101FA00041F40051C1606564202084F8410084F848
:101FB00042006563002070BD70B586B000240094B7
:101FC00001940294039403682B482A4E02210322B1
:101FD0000515B34221D1836943F48043836183694A
:101FE00003F480430493836943F0040383618069AD
:101FF000224E00F0040004900802CDE90001039293
:1020000069463046FEF798FFCDE9005469463046F0
:102010000294FEF791FF06B070BD194EB342FAD19B
:10202000C36943F48023C361C36903F48023049329
:10203000836943F0100383618069CDE9005100F0AA
:102040001000CDE903200F4D69462846FEF774FFC6
:10205000E814CDE90004694628460294FEF76CFFB7
:102060000948416821F0300141F0E06141F0100180
:102070004160D0E7003801400010024000080140F4
:10208000004800400010014000000140FEE70168E8
:102090004A69D24352050FD46FF480624A6100212D
:1020A00040F8301F202242738173026942F004021B
:1020B000026101730120704700207047F8B50446A3
:1020C000C06A1E460D461746082807D0012805D0CD
:1020D00010F5803F02D0206B122804D120680168DF
:1020E00041F480710160134600224FF00111204637
:1020F000009600F05DF840B120680068C00502D588
:102100004FF4007020640320F8BD2069B0F5804FC3
:102110000ED00620216800EAD51040F0F0000861DA
:1021200033463A460B49204600F08AF878B902E077
:1021300005F0FE0000E0E8B2216808610549334679
:102140003A46891F204600F07BF80028DCD00120A9
:10215000F8BD00000800010070B516460D460446A3
:102160001EE02046FFF793FF08B1012070BD681CF8
:1021700016D0FEF7E7FF801BA84200D885B920687B
:102180004069C04340070BD5002044F8300F2021A0
:102190006173A073216941F0200121612073E4E79C
:1021A00020684069C0434007DBD4002070BD0000B8
:1021B0002DE9F047984617460D460446C1F30746F9
:1021C000DDF820902AE000BFB8F1FF3F26D0FEF7EF
:1021D000B9FFA0EB0901414502D8B8F1000F1DD1AC
:1021E0002068012E16D0806925EA00000004000C4A
:1021F00012D00020B84211D1002044F8300F202125
:102200006173A073216941F02001216120730120D5
:10221000BDE8F0874069E7E70120EBE72068012E81
:102220000AD0806925EA00000004000C06D00020D6
:10223000B842C9D00020EBE74069F3E70120F7E797
:102240002DE9F047984616460D4604464FF0000922
:102250004FF0200AC1F3074723E020684069C043DC
:10226000400515D42068016841F4007101602168BF
:102270006FF480604861C4F8309084F83DA084F821
:102280003E90216C41F00401216484F83C9021E0EF
:10229000701C06D0FEF756FFA0EB0800B04203D832
:1022A00016B1012F1FD021E02068012F15D08069C1
:1022B00025EA00000004000C18D000BF44F8309F4D
:1022C00084F80DA084F80E90216941F0200121616D
:1022D00084F80C900120BDE8F087406925EA0000F1
:1022E0000004000CEAD12068406901E020688069A0
:1022F00025EA00000004000CAFD1ECE770B51646EB
:102300000D4604461EE02046FFF7C1FE08B101203D
:1023100070BD681C16D0FEF715FF801BA84200D8C0
:1023200085B920684069C04300060BD5002044F8F9
:10233000300F20216173A073216941F020012161D8
:102340002073E4E720684069C0430006DBD4002026
:1023500070BD0000FEB500241B480094019419498B
:1023600002940160891581600125057304750326B7
:1023700006614FF460214460C161FEF7F7FB08B1CC
:10238000FEF76FFB05200094CDE9015069460E4829
:10239000FEF76AFB08B1FEF764FB0224CDE90054A6
:1023A00069460948FEF760FB08B1FEF75AFBCDE924
:1023B000004669460448FEF757FB002801D0FEF7A7
:1023C00050FBFEBD002401403C000020054808B53C
:1023D000416941F001014161406900F00100009054
:1023E00008BD0000001002402DE9F04F85B0002527
:1023F00054480095019502950395816941F01001BB
:102400008161816901F010010491816941F020012D
:102410008161816901F020010491816941F0040129
:102420008161816901F004010491816941F0080131
:1024300081618069DFF810A100F00800049001229A
:10244000CF215046FEF779FEDFF800B141F2B80720
:10245000012239465846FEF770FE41F21808012263
:1024600041463B48FEF769FE4FF4006900224946A9
:102470005846FEF762FE012204213648FEF75DFE53
:102480004FF47040CDE9000501246946029450469E
:10249000FEF752FDCF20CDE900040326CDE9024628
:1024A00069465046FEF748FDCDE90074CDE9024685
:1024B00069465846FEF740FD4FF44C7002278DE800
:1024C000A10069465046FEF737FD40F603408DE80F
:1024D000A10069461E48FEF72FFDCDE90084CDE935
:1024E000024669461A48FEF727FD20028DE8A10042
:1024F00069465846FEF720FDCDF800900396CDE9D9
:10250000014769465846FEF717FDE003CDE900058F
:10251000694602945846FEF70FFD0420CDE90004F9
:10252000CDE9024669460B48FEF706FD4FF44870B8
:10253000CDE90005694602940548FEF7FDFC05B0AB
:10254000BDE8F08F0010024000100140000801407B
:10255000000C0140001401400D4810B50B4901600A
:102560000C49416000214FF480428160C0E90312B0
:1025700041618161C1610162FEF7EAFD002803D07B
:10258000BDE81040FEF76DBA10BD000000540040D9
:10259000B0000020A08601000F4810B50D49016071
:1025A0004FF48271416000218160C1604FF400727C
:1025B0000161C0E90512C1610162416281620A21C3
:1025C000C162FFF7B9FA002803D0BDE81040FEF75A
:1025D00048BA10BD003800400401002010B58AB090
:1025E000002407941C2168460894FDF7D8FD17487D
:1025F000154901602321C0E901146321C0E90314D6
:1026000080218161FFF70AFC08B1FEF72AFA0794DE
:1026100007A90E480894FFF737FB08B1FEF721FA27
:10262000602000903220CDE901040022694607486D
:102630000494FFF78DFB08B1FEF713FA0348FFF788
:1026400061FB0AB010BD0000000400405C010020E6
:102650000C4810B50A4901604FF416514160002141
:1026600081600C22C160C0E904128161C161FFF781
:1026700071FC002803D0BDE81040FEF7F2B910BD90
:1026800000380140A40100200C4810B50A4901603F
:102690004FF4E1314160002181600C22C160C0E94A
:1026A00004128161C161FFF755FC002803D0BDE829
:1026B0001040FEF7D6B910BD00480040EC010020E4
:1026C000FEE7FEE770B500F0B5FB14210948FDF701
:1026D00066FD084C00252570FEF734FD606025720C
:1026E00065720120207400202118401C8D7206287C
:1026F000FADB70BD3402002010B5054C2178814210
:1027000005D02070FEF71EFD60600120207410BD12
:10271000340200202DE9F0439BB00A2118A8FEF7EF
:1027200083F80023054603221946184600F07CFC76
:102730000024012D04D957A101A801F0D1F908E026
:102740000ED19DF8602058A101A802F1410201F0CC
:10275000C7F9082301AA00210C20009400F0FEFC18
:10276000002303221946732000F05EFC0C237F2215
:1027700019460020009400F0F9FA3C224D4909A8BE
:10278000FDF7F4FC032D02D90326002502E02E46B6
:10279000002511E0102000EBC500C1B218A8405D73
:1027A0000F2807D209AA009452F8202008230020FD
:1027B00000F0D4FC6D1CEDB2B542EBD330237F2288
:1027C00019460020009400F0D1FA002001F032F800
:1027D0000746012001F02EF88046022001F02AF879
:1027E000064600F0F5FF814600F0FEFF054638463C
:1027F000FDF7C2FD024630A101A801F071F90823DE
:1028000001AA34210020009400F0A8FC08232CA287
:1028100034211220009400F0A1FC4046FDF7ACFDED
:10282000024628A101A801F05BF9082301AA34217E
:102830001E20009400F092FC082321A234213020B5
:10284000009400F08BFC3046FDF796FD02461FA178
:1028500001A801F045F9082301AA34213C20009485
:1028600000F07CFC082316A234214E20009400F0D6
:1028700075FC2B464A4617A101A801F031F908233F
:1028800001AA3A210020009400F068FC1BB0BDE8CA
:10289000F0830000414C41524D202D204D756C7449
:1028A00069706C6500000000414C41524D5F25632A
:1028B00000000000A042000854313A2564000000E6
:1028C0004300000054323A256400000054333A2596
:1028D00064000000447574793A2025642525202081
:1028E00046414E3A256452504D0000002DE9F04318
:1028F00089B0002408235CA221461920009400F02E
:102900002DFC0C237F2219460020009400F02EFAA3
:10291000012000F0ABFC0746022000F0A7FC0646B1
:10292000032000F0A3FC0546012F7DD052A253A145
:1029300001A801F0D5F8082301AA10210020009475
:1029400000F00CFC012E70D04BA24FA101A801F0A9
:10295000C7F8082301AA1A210020009400F0FEFB0A
:10296000012D7ED044A24BA101A801F0B9F80823A3
:1029700001AA24210020009400F0F0FB30237F22E4
:1029800019460020009400F0F1F9002000F052FFF9
:102990000746012000F04EFF8046022000F04AFF6B
:1029A000814600F015FF064600F01EFF054638463A
:1029B000FDF7E2FC02463AA101A801F091F80823D4
:1029C00001AA34210020009400F0C8FB082336A29D
:1029D00034211220009400F0C1FB4046FDF7CCFCEE
:1029E000024632A101A801F07BF8082301AA342194
:1029F0001E20009400F0B2FB08232BA234213020CB
:102A0000009400F0ABFB4846FDF7B6FC024629A156
:102A100001A801F065F8082301AA34213C200094A4
:102A200000F09CFB082301E017E018E01EA234210F
:102A30004E20009400F092FB2B4632461FA101A8C5
:102A400001F04EF8082301AA3A210020009400F07A
:102A500085FB09B0BDE8F08303E01EA267E71DA275
:102A600073E71CA27FE7000053797374656D204EF5
:102A70006F726D616C0000004F4646004348313A6A
:102A8000205B25735D0000004348323A205B2573CC
:102A90005D0000004348333A205B25735D00000071
:102AA00054313A25640000004300000054323A25B6
:102AB0006400000054333A256400000044757479C2
:102AC0003A2025642525202046414E3A256452505F
:102AD0004D0000004F4E20002DE9F04387B0002547
:102AE00008232CA229461920009500F037FB0C235F
:102AF0007F2219460020009500F038F914222A4957
:102B000001A8FDF733FB294F00240DF104084FF015
:102B1000100900BF09EBC400C6B2009558F8242084
:102B200008233146002000F019FB3819807A01286B
:102B30001AD002281DD008231DA231466E20009510
:102B400000F00CFB641C052CE4DB38237F221946C3
:102B50000020009500F00AF9787A4FF00803052864
:102B600000950ED213A20DE0361F0023F1B2012210
:102B700003E0361F0023F1B202226E2000F054FA67
:102B8000E0E712A23A21002000F0E8FA07B0BDE821
:102B9000F083000053797374656D2053656C662D66
:102BA00054657374000000008C4200083402002059
:102BB0002000000053656C662D54657374205275B7
:102BC0006E6E696E672E2E2E0000000053656C66D7
:102BD0002D5465737420436F6D706C6574650000CF
:102BE0007CB5FEF7AFFA304940F6B83600254A68A2
:102BF000841AB4420AD20D722C48CDE900051B2379
:102C000060221221102000F05BFA7CBD41F270704E
:102C1000844245D2012008722548CDE900051B23D6
:102C200073220821062000F04BFA6420A4F6B83481
:102C30004443B4FBF6F0C0B264214843B0FBF1F06A
:102C4000C6B22823712219460E20009500F08EF896
:102C50002F23712219460E20009500F087F80E22CE
:102C60002F2328211046009500F080F871222F2391
:102C700028211046009500F079F80024002EC4D9D0
:102C800004F10F00C2B2C0B22E232921009500F03A
:102C90006DF8641CE4B2B442B7D2632CF0D37CBDAF
:102CA000022008727CBD0000340200202A4B00087C
:102CB000E04C000870B5FEF745FA244D044628782C
:102CC00030B101280CD002280FD0032813D116E010
:102CD000686841F27071201A88420CD9012008E01E
:102CE000687A052807D3022003E0FDF7B2FD10B192
:102CF0000320FFF701FD287C154E50B904E0FDF7D5
:102D0000A8FD0028EFD0F6E73068201AB0F57A7FEA
:102D10001AD900F01FF8287830B1012807D002280E
:102D200008D003280BD108E0FFF75AFF07E0FFF7B0
:102D3000D3FE04E0FFF7DAFD01E0FFF7EBFC00F063
:102D4000DDF800202874346070BD000034020020DB
:102D50002800002010B54FF480610348FDF71FFAEA
:102D6000BDE8104000F0CAB8480200202DE9FE4F2F
:102D7000161ACDE900104FF000085D1A47464FF0D3
:102D8000FF30002E02DD4FF0010102E003D14FF0D1
:102D900000018B4602E08346C6F10006002D02DDED
:102DA0004FF0010002E003D14FF00000824602E044
:102DB0008246C5F10005AE4201DD344600E02C46F6
:102DC000601C4FF00009029019E000980C9AC1B203
:102DD0000198C0B200F018F8B0442F44A04504DDBB
:102DE0000198A8EB040858440190A74203DD00981D
:102DF0003F1B5044009009F101001FFA80F902992D
:102E00008945E2DDBDE8FE8F30B580280FD240292C
:102E10000DD2074DCB08012401F0070105EBC000DE
:102E20008C40C15C0AB1214300E0A143C15430BDD4
:102E30004802002010B56420FEF76CF8FD2000F079
:102E4000B9F90446122000F0B5F90443AE2000F0B1
:102E5000B1F90443D52000F0ADF90443A02000F0FF
:102E6000A9F90443A82000F0A5F904433F2000F08D
:102E7000A1F90443D32000F09DF90443002000F0A1
:102E800099F90443402000F095F90443A12000F093
:102E900091F90443C82000F08DF90443DA2000F0D2
:102EA00089F90443122000F085F90443812000F0E1
:102EB00081F904437F2000F07DF90443D92000F01C
:102EC00079F90443822000F075F90443DB2000F017
:102ED00071F90443342000F06DF90443A42000F09C
:102EE00069F90443A62000F065F90443FFF732FFB7
:102EF000AF2000F05FF9204310BD00002DE9F04342
:102F0000A3B00024144E01AD40274FF064084FF0E9
:102F1000810900BF04F1B000C0B200F04BF90020FD
:102F200000F048F9102000F045F906EBC4118022AA
:102F30008DF80470681CFDF719F94B4601AA782139
:102F40000648CDF80080FEF7C7F9641CE4B2082CEF
:102F5000E0D323B0BDE8F08348020020B000002099
:102F60002DE9FC4F82461C460D460091580700D0C3
:102F7000012000EBD40160084143203A019001F0A8
:102F8000FF0902F0FF0B002041E0082C0BD0102CB1
:102F900040D1234901EB0B11002711F808603006DE
:102FA00007D50B9A08E01F490BEB4B0001EB4001E2
:102FB000F2E70B9880B3002229465046FFF724FF22
:102FC00070066D1C060EEDB2402D23D27F1CFFB2A1
:102FD000082FE4D30AF1010000F0FF0A082C0FD0FB
:102FE000019908FB11A1AAEB0100B0EB540F07D126
:102FF000AAEB540000F0FF0A00980830C0B200901D
:10300000009DBAF1800F05D208F10100C0B28046E0
:103010004845BAD3BDE8FC8FFFE70122CCE70000AA
:1030200004450008DC4200082DE9F04F9B460D46A0
:1030300004468946002A3ED0032A3CD81F484FF058
:10304000000800EB021A00BF0AEB0800002610F887
:10305000107C380601D55A4603E0BBF1000F18D0AA
:10306000002229462046FFF7CFFE78066D1C070E8A
:10307000EDB2402D1FD2761CF6B2082EE9D3641CA7
:10308000E4B2C8F1000004EB8000201A082802D046
:1030900007E00122E5E7083C09F10800E4B200F08E
:1030A000FF094D46802C06D208F1010000F0FF0810
:1030B000B8F1100FC8D3BDE8F08F0000F44A000843
:1030C0002DE9F04F89B08046079092460C464FF0AC
:1030D00000098B46580700D0012000EBD300019077
:1030E000002032E000262BE01298002510F809702D
:1030F00009F101001FFA80F9F80701D0139A02E0E4
:10310000139848B3002221464046FFF77DFE641C19
:103110006D1C7F08EDB2E4B2082DEDD308F101007B
:10312000079900F0FF08A8EB0101514505D10BF10B
:103130000800DDF81C8000F0FF0B761C5C46F6B240
:103140005645D1D30098401CC0B2019900908842E6
:10315000C8D309B0BDE8F08F0122D4E72DE9F84FBC
:10316000044682461D46802016460F46A0EB5509B0
:10317000C3F14008DDF828B012E0A14502D2781969
:103180005446C7B2B84510DB2B4639462046CDF829
:1031900000B0FFF7E5FE082D09D00834E4B2761C34
:1031A0003278A2F120005E28E7D9BDE8F88FA41D8F
:1031B000F4E700001CB5002101918DF805006420A2
:1031C0000090022301AA78210148FEF785F81CBD72
:1031D000B0000020704770B500F09CF8044600F085
:1031E000D7F8054600F012F961190844C0B2012869
:1031F00001D9012070BD002070BD10B5012804D098
:10320000022812D0032829D11FE000F077F830B14E
:1032100000F07AF828B100F029F920B11EE0022070
:1032200010BD052010BD082010BD00F0A3F830B17E
:1032300000F0A6F828B100F021F920B10EE003203B
:1032400010BD062010BD092010BD00F0D1F838B126
:1032500000F0D4F830B100F019F928B1002010BD09
:10326000042010BD072010BD0A2010BD10B5012894
:1032700005D0022806D0032807D0002010BD00F09A
:1032800049F804E000F084F801E000F0BFF80028FD
:10329000F4D0012010BD00004FF48071012806D049
:1032A000064A022805D0032805D0002070470448AC
:1032B00002E04FF400711046FDF73ABF00100140E4
:1032C00000080140012805D0022809D003280DD0AC
:1032D00000207047012901D000F016B800F00EB8A8
:1032E000012901D000F04CB800F044B8012901D008
:1032F00000F084B800F07CB870470000102101484D
:10330000FDF716BF0010014002210148FDF710BF74
:10331000000C01402DE9F041154C4FF40076314688
:103320002046FDF705FFD0B100251420FDF7F2FD82
:10333000314627462046FDF7FBFE90B100241420BD
:10334000FDF7E8FD31463846FDF7F2FE58B10020A2
:10335000A5420AD1844208D12846BDE8F081012562
:10336000E3E70124EBE70120F2E70020F5E70000A6
:10337000000C014020210148FDF7DABE0010014099
:103380004FF480610148FDF7D3BE0000000C0140FE
:103390002DE9F041154C4FF4807631462046FDF77B
:1033A000C7FED0B100251420FDF7B4FD31462746F5
:1033B0002046FDF7BDFE90B100241420FDF7AAFDC4
:1033C00031463846FDF7B4FE58B10020A5420AD177
:1033D000844208D12846BDE8F0810125E3E70124B5
:1033E000EBE70120F2E70020F5E70000000C0140C8
:1033F00001210148FDF79CBE000C01404FF4006123
:103400000148FDF795BE0000000C01402DE9F04198
:10341000154C4FF4004631462046FDF789FED0B1E9
:1034200000251420FDF776FD314627462046FDF79E
:103430007FFE90B100241420FDF76CFD3146384624
:10344000FDF776FE58B10020A5420AD1844208D18A
:103450002846BDE8F0810125E3E70124EBE70120E0
:10346000F2E70020F5E70000000801404FF480710A
:103470000148FDF75DBE0000000801404FF40071F7
:103480000148FDF755BE0000001001404FF4807167
:103490000148FDF74DBE00000010014010B5FFF7D8
:1034A0009AFE08B1FDF710FA01242046FFF7A5FEA9
:1034B00008B1FDF709FA641CE4B2032CF5D910BD7C
:1034C0007047FDF7CDBF30B595B028216846FCF7B1
:1034D00066FE14210AA8FCF762FE18210FA8FCF76B
:1034E0005EFE01210804CDE90010002502950224AA
:1034F0000491CDE907404FF4E01009906846FEF7CB
:103500008BF908B172B6FEE70AA90F2081E83100F5
:103510004FF48060CDE90D0502210AA8FEF7A0F85E
:1035200008B172B6FEE74FF4004011900F940FA857
:10353000FEF720F8002801D072B6FEE715B030BDC6
:1035400070470000F0B50268204C214D214E224FFB
:10355000224B4FF0804CA04209D0984207D06045E2
:1035600005D0A84203D0B04201D0B84204D122F025
:10357000700E4A6842EA0E02A04209D0984207D073
:10358000604505D0A84203D0B04201D0B84203D173
:1035900022F44075CA682A434D6922F080022A430A
:1035A00002608A68C2620A688262A04201D09842C0
:1035B00001D109690163012141610169C90703D092
:1035C000016921F001010161F0BD0000002C014002
:1035D0000004004000080040000C0040003401409E
:1035E00010B501F01F030121046A99408C43046265
:1035F000016A9A401143016210BD0000F0B5036AF0
:10360000026A22F00102026242688469124E24F0CA
:1036100073050C682C4323F002058B682B430D4D7A
:10362000A84201D0B04205D123F00807CB683B4344
:1036300023F00403A84201D0B04205D14D6922F421
:10364000407215438A692A43426084614968416334
:103650000362F0BD002C014000340140F0B5026A65
:10366000036A23F010030362436884690D6824F43D
:10367000E64444EA05248D6822F0200242EA05125D
:103680000F4D104EA84201D0B04206D1CF6822F0B3
:10369000800242EA071222F04002A84201D0B04262
:1036A00007D14D6923F4406343EA85038D6943EAFA
:1036B000850343608461496881630262F0BD000054
:1036C000002C014000340140F0B5026A036A23F483
:1036D000807303624368C46922F4007224F07305A6
:1036E0000C68124E2C438D6842EA05220E4DA8420A
:1036F00001D0B04206D1CF6822F4006242EA07222C
:1037000022F48062A84201D0B04207D14D6923F46F
:10371000405343EA05138D6943EA05134360C461CE
:103720004968C1630262F0BD002C014000340140D1
:1037300030B5046A026A22F4805202624268C369A8
:103740000D6823F4E64343EA05238D6824F400540E
:1037500044EA0534084DA84202D0084DA84204D1DD
:103760004D6922F4804242EA85124260C361496891
:103770000164046230BD0000002C014000340140AF
:1037800070B5002000F056F80546012000F052F810
:103790000446022000F04EF807498D4201DB0B2061
:1037A00070BD8C4201DB0C2070BD884201DB0D2016
:1037B00070BD002070BD000000007042032803D2DD
:1037C000024931F8100070470020704710000020B7
:1037D00004480168486BC96A64225043B0FBF1F0A9
:1037E000C0B270475C01002010B54FF480510F4803
:1037F000FDF79EFC0E4C2178012903D110B96168B8
:10380000491C61602070FDF79DFCA168411AB1F56B
:103810007A7F09D3A188C1EB01114904090C002268
:10382000C4E90120084610BD002010BD0010014071
:103830000400002070B5FFF7C1FFFCF798FD0E4DA6
:103840002946FCF70FFD6FF00B01FCF77BFD0446EA
:10385000A84200DB094C29462046FCF700FD05463E
:1038600007492046FCF7FEFC2946FCF72DFDBDE884
:10387000704000F067B80000333353405C8F524013
:103880000000204110B5032206490748FDF746FA1B
:1038900000210648FEF704FBBDE81040322000F08E
:1038A000A5B80000100000203C0000205C010020B2
:1038B00070B50020FFF7BEFF04460120FFF7BAFFF6
:1038C00006460220FFF7B6FF054621463046FCF7C4
:1038D00077FD00D2344621462846FCF771FD00D220
:1038E0002C461349134B48789C42024601DA0020CB
:1038F0000AE0114B2344B3F5B80F01D2012003E0D5
:103900000E4B9C4200DB022090420DD048700C49C7
:10391000087020B1012804D0022805D101E032202E
:1039200000E05F2000F062F8BDE87040FFF75CBF88
:1039300004000020000004420000F4BD00007042BA
:10394000030000202DE9F04107462248874202DBB0
:103950002148BDE8F0812148874201DC2048F8E792
:10396000204E002406EBC40538466968FCF71EFDAE
:103970002AD83846E968FCF723FD25D806EBC400B1
:1039800090F90000FCF7EAFC804695F90800FCF786
:10399000E5FC6C6806462146E868FCF75DFC0546D8
:1039A00021463846FCF758FC044641463046FCF7B1
:1039B00053FC2146FCF756FC2946FCF785FC4146A2
:1039C000BDE8F041FCF7F6BB641CA4B2A52CC9D33A
:1039D0000548BEE7D7634543000020C22731083FB2
:1039E0000000FA425C3D00080000C841642800D98C
:1039F000642000EB401000EB40006421B0FBF1F0CC
:103A000001490968486370475C01002010B5FFF761
:103A10004FFFFFF7B5FE002803D0BDE81040FCF7CC
:103A200053BF10BD70B5044600680169E26821F417
:103A30004051114301612169A0680843616908434D
:103A40002168CA6841F20C639A430243CA60206845
:103A50004169A26921F44071114341611E49206806
:103A6000884202D1FDF7A2FE01E0FDF78FFE00EBD8
:103A7000C00101EB0012606864218000B2FBF0F32A
:103A8000B3FBF1F36FF018067343B2FBF0F5B2FB32
:103A9000F0F605EB8305322303EB0515B5FBF1F5D5
:103AA000B6FBF1F605F0F00505EB0615B2FBF0F6F6
:103AB000B2FBF0F0B0FBF1F06FF01802504306EBF0
:103AC000800003EB0010B0FBF1F0216800F00F0064
:103AD0002844886070BD000000380140FEE7000007
:103AE0000FB4084B10B504A902AA039800F02CF8F3
:103AF000044602A9002000F003F9204610BC5DF83E
:103B000014FB0000013D00080907090E002804DB32
:103B100000F1E02080F80014704700F00F0000F181
:103B2000E02080F8141D704702E008C8121F08C189
:103B3000002AFAD170477047002001E001C1121F2E
:103B4000002AFBD1704700002DE9FF4F8BB09A4649
:103B50000F460546002606E025280BD052460D9953
:103B600090476D1C761C28780028F5D10FB03046A0
:103B7000BDE8F08F0024A0460122604900E0044324
:103B800015F8013F203B02FA03F00842F7D12878EC
:103B90002E2817D115F8010F44F004042A280ED05E
:103BA0006FF02F022878A0F1300109290AD808EB1C
:103BB000880102EB410100EB01086D1CF2E757F8A8
:103BC000048B6D1C287869283ED006DC0028CDD0F7
:103BD00063280BD0642804D136E0732810D07528F0
:103BE0004BD052460D999047761C85E017F8040B90
:103BF0008DF8000000208DF80100E946012003E067
:103C000057F8049B4FF0FF3061074FF0000401D4D8
:103C10000AE0641C44450DDA8442FADB19F804100A
:103C20000029F6D106E0641C8442FCDB19F804107C
:103C30000029F8D1264404E019F8010B52460D99E9
:103C40009047641EF8D257E001CF4FF00A0B0028CE
:103C500002DA40422D2102E0210504D52B218DF806
:103C60002410012103E0E10705D02021F7E70DF141
:103C7000200908910CE00021F9E701CF4FF00A0B71
:103C8000F9E75946FCF7A6FB01F1300209F8012DCE
:103C90000028F6D1ADEB090000F1200B600701D43C
:103CA0004FF00108D84502DDA8EB0B0000E0002032
:103CB0008046002406E009A85246005D0D99904711
:103CC000641C761C08988442F5DB04E030205246E0
:103CD0000D999047761CB8F10001A8F10108F5DCB8
:103CE00005E019F8010B52460D999047761CBBF17F
:103CF0000001ABF1010BF4DC6D1C34E70928010075
:103D00000A68531C0B6010707047FDF7B1FBFFF79A
:103D1000DAFBFEF769FBFEF759FBFEF71BFBFEF72C
:103D20005DFCFEF719FCFEF737FCFEF791FCFEF791
:103D3000ABFCFFF7E1FAFFF7A5FDFCF799FDFEF7F5
:103D4000C1FCFFF7ABFBFFF761FEFCF7FDFDFEF7E3
:103D5000B1FF0A20FDF7DEF8F3E70000D80000000D
:103D6000D7634543D90000003D8A3A43DA0000009A
:103D70009A593043DB000000CDCC2643DC00000024
:103D8000ECD11D43DD000000D7631543DE000000C9
:103D90008F820D43DF0000000A170643E000000099
:103DA0005238FE42E10000005C0FF142E2000000E8
:103DB00014AEE442E30000005C0FD942E4000000CE
:103DC0007B14CE42E500000071BDC342E600000056
:103DD0005EFAB942E700000012C3B042E8000000FA
:103DE0006F12A842E9000000ACDC9F42EA0000002C
:103DF000A01A9842EB0000009CC49042EC00000026
:103E00007BD48942ED0000009C448342EE00000018
:103E1000B21D7A42EF000000235B6E42F00000000A
:103E20004C376342F1000000FCA95842F200000048
:103E3000F6A84E42F30000000E2D4542F4000000AB
:103E40001B2F3C42F5000000E9A63342F6000000BB
:103E5000568E2B42F700000035DE2342F8000000AA
:103E600068911C42F9000000CBA11542FA00000045
:103E7000440B0F42FB000000B4C80842FC000000E5
:103E8000F8D30242FD000000F853FA41FE000000A2
:103E90005C8FEF41FF000000DF4FE54100000000B4
:103EA0005C8FDB41010000009643D241020000001C
:103EB0007F6AC94103000000F4FDC0410400000016
:103EC000CFF7B84105000000EC51B14106000000F9
:103ED0002506AA41070000006F12A3410800000058
:103EE000A4709C4109000000AC1C96410A0000002F
:103EF0007B1490410B000000EC518A410C00000043
:103F0000E5D084410D000000D1227F410E00000069
:103F1000A01A75410F0000001F856B4110000000C2
:103F2000355E624111000000B29D5941120000004F
:103F30007D3F5141130000007D3F494114000000C6
:103F40008195414115000000A2453A41160000004C
:103F500096433341170000005C8F2C41180000008D
:103F6000DD24264119000000000020411A00000055
:103F7000AC1C1A411B000000E17A14411C00000037
:103F800087160F411D0000006DE709411E0000006B
:103F9000AAF104411F000000273100412000000069
:103FA0009643F74021000000FA7EEE402200000018
:103FB000AC1CE640230000004A0CDE402400000058
:103FC0000456D6402500000079E9CE4026000000C6
:103FD000A8C6C7402700000091EDC040280000009F
:103FE000355EBA40290000006210B4402A0000008B
:103FF000E7FBAD402B000000F628A8402C00000095
:104000005C8FA2402D000000E9269D402E0000009C
:10401000CFF797402F000000DBF9924030000000FE
:104020000E2D8E4031000000689189403200000062
:10403000B81E8540330000002FDD804034000000B2
:10404000D57879403500000037897140360000008E
:1040500023DB694037000000FA7E62403800000030
:10406000BC745B4039000000A69B54403A0000003D
:1040700019044E403B000000B29D47403C00000048
:10408000378941403D00000081953B403E000000E3
:1040900054E335403F0000004E62304040000000D5
:1040A0006F122B4041000000B6F325404200000093
:1040B000250621404300000058391C404400000000
:1040C000B29D174045000000333313404600000006
:1040D00079E90E404700000083C00A404800000014
:1040E00052B8064049000000E5D002404A000000F6
:1040F0003F35FE3F4B00000079E9F63F4C000000E1
:104100003BDFEF3F4D0000008716E93F4E00000007
:104110005C8FE23F4F000000F628DC3F50000000BB
:10412000DD24D63F51000000C520D03F52000000E2
:10413000355ECA3F530000002FDDC43F540000002D
:10414000EE7CBF3F55000000713DBA3F56000000B5
:104150007D3FB53F570000008941B03F5800000047
:104160001F85AB3F5900000079E9A63F5A000000C7
:104170005C8FA23F5B0000003F359E3F5C0000006B
:10418000AC1C9A3F5D0000001904963F5E000000E1
:104190004A0C923F5F00000004568E3F6000000012
:1041A000BE9F8A3F610000003D0A873F6200000019
:1041B0008195833F630000008941803F64000000D7
:1041C00023DB793F65000000BC74733F660000008C
:1041D000DF4F6D3F670000008B6C673F6800000099
:1041E000C1CA613F69000000F6285C3F6A00000018
:1041F0002B87563F6B0000007368513F6C00000036
:10420000BA494C3F6D000000022B473F6E00000092
:10421000D34D423F6F0000002DB23D3F70000000C3
:104220008716393F710000006ABC343F72000000FD
:104230004E62303F73000000BA492C3F740000000A
:104240002731283F750000009318243F76000000B6
:104250008941203F7700000008AC1C3F7800000037
:104260008716193F790000000681153F7A0000008B
:1042700085EB113F7B0000008D970E3F7C00000016
:104280001F850B3F7D0000002731083FC04F00080D
:10429000B04F0008CC4F0008444F00084C4F0008B6
:1042A000584F0008E44E0008F44E0008044F000880
:1042B000144F0008244F0008344F0008804F0008B6
:1042C000904F0008A04F0008A04E0008B04E000814
:1042D000C04E0008D04E00086C4F000800000000DF
:1042E00000000000002F000000000700070000147D
:1042F0007F147F1400242A7F2A120062640813238B
:1043000000364955225000000503000000001C2221
:104310004100000041221C000014083E081400085F
:10432000083E0808000000A060000008080808080F
:10433000000060600000002010080402003E5149A7
:10434000453E0000427F4000004261514946002145
:1043500041454B31001814127F100027454545395F
:10436000003C4A49493000017109050300364949BA
:10437000493600064949291E000036360000000073
:1043800056360000000814224100001414141414BE
:104390000000412214080002015109060032495967
:1043A000513E007C1211127C007F49494936003E83
:1043B00041414122007F4141221C007F494949413E
:1043C000007F09090901003E4149497A007F080838
:1043D000087F0000417F4100002040413F01007FF5
:1043E00008142241007F40404040007F020C027FC1
:1043F000007F0408107F003E4141413E007F0909D3
:104400000906003E4151215E007F091929460046F8
:10441000494949310001017F0101003F4040403FCF
:10442000001F2040201F003F4038403F0063140819
:1044300014630007087008070061514945430000F4
:104440007F41410000552A552A55000041417F0017
:10445000000402010204004040404040000001020C
:104460000400002054545478007F484444380038F5
:104470004444442000384444487F0038545454187D
:1044800000087E0901020018A4A4A47C007F08048F
:1044900004780000447D4000004080847D00007F5F
:1044A000102844000000417F4000007C041804787C
:1044B000007C0804047800384444443800FC242478
:1044C00024180018242418FC007C08040408004860
:1044D0005454542000043F444020003C4040207C81
:1044E000001C2040201C003C4030403C0044281070
:1044F0002844001CA0A0A07C004464544C44141424
:10450000141414140000000000000000000000005B
:1045100000000000000000F8000000000000003370
:104520003000000000100C06100C06000000000017
:104530000000000040C07840C0784000043F040400
:104540003F040400007088FC08300000001820FFC1
:10455000211E0000F008F000E018000000211C03FC
:104560001E211E0000F00888700000001E21232478
:104570001927211010160E00000000000000000096
:1045800000000000000000E0180402000000000726
:104590001820400000020418E0000000004020182D
:1045A00007000000404080F0804040000202010F00
:1045B00001020200000000F0000000000101011FE4
:1045C00001010100000000000000000080B0700048
:1045D00000000000000000000000000000010101D8
:1045E0000101010100000000000000000030300067
:1045F0000000000000000000806018040060180641
:104600000100000000E010080810E000000F10207A
:1046100020100F00001010F8000000000020203FC4
:10462000202000000070080808887000003028244E
:1046300022213000003008888848300000182020EF
:1046400020110E000000C02010F800000007042414
:10465000243F240000F80888880808000019212059
:1046600020110E0000E0108888180000000F1120B3
:1046700020110E0000380808C83808000000003F6C
:10468000000000000070880808887000001C2221CB
:1046900021221C0000E010080810E0000000312278
:1046A00022110F00000000C0C00000000000003018
:1046B000300000000000008000000000000080606A
:1046C00000000000000080402010080000010204EB
:1046D00008102000404040404040400004040404D2
:1046E000040404000008102040800000002010088E
:1046F00004020100007048080808F00000000030C3
:1047000036010000C030C828E810E0000718272450
:1047100023140B000000C038E0000000203C2302FE
:104720000227382008F8888888700000203F202061
:1047300020110E00C0300808080838000718202093
:104740002010080008F808080810E000203F20208A
:1047500020100F0008F88888E8081000203F20206B
:104760002320180008F88888E8081000203F20005F
:1047700003000000C0300808083800000718202097
:10478000221E020008F808000008F808203F210156
:1047900001213F20000808F8080800000020203F01
:1047A0002020000000000808F8080800C080808071
:1047B0007F00000008F888C028180800203F20016A
:1047C0002638200008F8080000000000203F2020C4
:1047D0002020300008F8F800F8F80800203F003FDB
:1047E000003F200008F830C00008F808203F2000F3
:1047F00007183F00E01008080810E0000F10202004
:1048000020100F0008F808080808F000203F2101D8
:1048100001010000E01008080810E0000F1824242F
:1048200038504F0008F8888888887000203F2000A2
:10483000030C302000708808080838000038202158
:1048400021221C00180808F8080818000000203F62
:104850002000000008F808000008F808001F2020C9
:1048600020201F000878880000C83808000007389A
:104870000E010000F80800F80008F800033C0700EB
:10488000073C0300081868808068180820302C0353
:10489000032C30200838C800C83808000000203F2A
:1048A0002000000010080808C83808002038262119
:1048B00020201800000000FE020202000000007F1D
:1048C00040404000000C30C000000000000000012B
:1048D0000638C00000020202FE0000000040403F17
:1048E00000000000000004020202040000000000BA
:1048F00000000000000000000000000080808080B8
:10490000808080800002020400000000000000009F
:104910000000000000008080808000000019242238
:1049200022223F2008F8008080000000003F112074
:1049300020110E000000008080800000000E112079
:1049400020201100000000808088F800000E112057
:1049500020103F200000808080800000001F222265
:1049600022221300008080F0888888180020203FD1
:10497000202000000000808080808000006B9494E4
:104980009493600008F8008080800000203F2100A0
:1049900000203F2000809898000000000020203F69
:1049A00020200000000000809898000000C0808057
:1049B000807F000008F8000080808000203F2402F3
:1049C0002D302000000808F8000000000020203FE3
:1049D000202000008080808080808000203F200098
:1049E0003F20003F8080008080800000203F210029
:1049F00000203F200000808080800000001F2020D9
:104A000020201F00808000808000000080FF912017
:104A100020110E000000008080808000000E112018
:104A20002091FF80808080008080800020203F21B6
:104A3000200001000000808080808000003324245A
:104A400024241900008080E0808000000000001F06
:104A5000202000008080000000808000001F2020B7
:104A600020103F20808080000080808000010E3078
:104A70000806010080800080008080800F300C03D9
:104A80000C300F0000808000808080000020312EDC
:104A90000E312000808080000080808080818E70B8
:104AA0001806010000808080808080000021302C6A
:104AB0002221300000000000807C02020000000083
:104AC000003F404000000000FF0000000000000028
:104AD000FF0000000002027C800000000040403F18
:104AE00000000000000601010202040400000000B2
:104AF0000000000000000000000080400000204096
:104B00003807000000FEFEFEFEFEFE00003F3F3FB5
:104B10003F3F3F0000C038060638C000203F21213B
:104B200021213F20000180001B0000000000000048
:104B30000000000000000000000000000000000075
:104B400000000000000000000000007FFFFFFFFFEA
:104B5000FFFFFFFFFFFFFFFFFFFC01FFFFFFFFFF66
:104B6000FFFFFFFFFFFFFFFFFFFC07FFFFFFFFFF50
:104B7000FFFFFFFFFFFFFFFFFFFC0FFFFFFFFFFF38
:104B8000FFFFFFFFFFFFFFFFFFFC1FFFF000000024
:104B9000000000000000000000003FFFC000000017
:104BA000000000000000000000003FFF8001FF0146
:104BB000E73C3C0F0F007FF87FC07FFF0003FFC181
:104BC000E77C7C0F0F007FF87FF87FFF0003FFE199
:104BD000E67C7C0F0F007FF87FF87FFE0003FFE18B
:104BE000E678781F1F007FF87FFC7FFE0003C3E399
:104BF000E678781F1F007800F87CFFFE0003C1E311
:104C0000EE78781F1F007800F83C7FFE0003C3C3D6
:104C1000E078781E1E00F800F83C7FFE0003FFC31A
:104C2000C0F8FFFE1E00FFF0F07C7FFE0007FF03D0
:104C3000C0F8FFFE1E00FFF0FFF87FFE0007FF83B5
:104C4000C0F8FFFE1E00FFE0FFF03FFF0007C7C3F4
:104C5000C0F0FFFE3E00FBE0FFE03FFF800783C3A4
:104C6000C0F0F03E3E00F001FFC01FFF800783C38D
:104C7000C1F0F03E3E00F001F3E00FFFE00787C314
:104C8000F3E0F03C3FF9FFE1F3E007FFF807FFC373
:104C9000FFE1F03C3FF9FFE1E1F001FFF80FFF8198
:104CA000FFC1F03C3FF9FFE1E1F0007FF80FFF00AA
:104CB000FF81F07C3FF9FFE1E0F800000000000018
:104CC00018000000000000000000000000000000CC
:104CD00000000000000000000000000173001B0045
:104CE00000000000000000000000000000001F1C89
:104CF000000C083000630000C0000000001F3E00F0
:104D00001F0C7800638001CFFFF1FFFC1F36003FCE
:104D10000C7C006180018FFFF1FFFE1F3300330C1C
:104D20006C0060C0038C00018007003300330C6E00
:104D30000060C0070C00018003003300630C6600B4
:104D40006060060C000180039C3380630C67006088
:104D5000200E0C000180019C3180630C63006030E8
:104D60001C0C00018001863180E30C6380603818E0
:104D70000C000180018131C0C30C61806018380CC7
:104D8000000180038330C0C30C61C0601C700C0044
:104D90000180030330C0C30C60C0600E600C0001D2
:104DA000800F0030C1830C60E06006E00CFFE1BFC3
:104DB000FE1E3061830C60706003800C0001800077
:104DC0001F3063830C60306000000C0001803018DD
:104DD0003073030C60386001000C000180381F3014
:104DE00033030C60186001800C000180180030371C
:104DF000030C601C6001800C0001800C1030360335
:104E00000C600C6001800C0001800E003016030C59
:104E1000600E6001800C000180061F301E030C60D4
:104E2000066001800C000180071C301C030C600729
:104E30006001800C0001800310301C030C6003E053
:104E400001800FFFF98001813000030C6003E00155
:104E50008007FFF98001982000020820000001006F
:104E600000000100008000000000000000000000C1
:104E70000000000000010202030405060708090AF9
:104E80000B0C0D0E0F1010000000000000000001C0
:104E900002030406070809000000000102030400E1
:104EA0004552523A4B204E5443313E363043000077
:104EB0004552523A4C204E5443323E363043000065
:104EC0004552523A4D204E5443333E363043000053
:104ED0004552523A4E2053656C662D636865636B8C
:104EE000000000004552523A42204B315F312066AB
:104EF00061696C004552523A43204B325F31206663
:104F000061696C004552523A44204B335F31206650
:104F100061696C004552523A45204B315F32206640
:104F200061696C004552523A46204B325F3220662E
:104F300061696C004552523A47204B335F3220661C
:104F400061696C0049324320427573004750494FF4
:104F500020537461747573004552523A4120454E96
:104F600020636F6E666C6963740000004552523AAC
:104F70004F20506F776572204661756C7400000099
:104F80004552523A4820535731206661756C74007F
:104F90004552523A4920535732206661756C74006D
:104FA0004552523A4A20535733206661756C74005B
:104FB0004E54432053656E736F72205465737400B2
:104FC00052656C617920546573740000466C61739E
:104FD00068204D656D6F727900000000FC4F00087D
:104FE000000000203C000000283B0008385000086A
:104FF0003C0000200C0A0000383B000800000000C4
:10500000010000000000000000000000000000009F
:105010000000000000000000000000000000000090
:10502000000000000000000001000000100000006F
:085030000000000000127A00EC
:0400000508000131BD
:00000001FF
